{
  "contractName": "BillyCoinFlip",
  "abi": [
    {
      "anonymous": false,
      "inputs": [
        {
          "indexed": false,
          "internalType": "address",
          "name": "addr",
          "type": "address"
        },
        {
          "indexed": false,
          "internalType": "bytes32",
          "name": "queryId",
          "type": "bytes32"
        }
      ],
      "name": "HeadOrTailsRequested",
      "type": "event"
    },
    {
      "anonymous": false,
      "inputs": [
        {
          "indexed": false,
          "internalType": "uint256",
          "name": "",
          "type": "uint256"
        }
      ],
      "name": "debug",
      "type": "event"
    },
    {
      "anonymous": false,
      "inputs": [
        {
          "indexed": false,
          "internalType": "bytes32",
          "name": "queryId",
          "type": "bytes32"
        },
        {
          "indexed": false,
          "internalType": "bool",
          "name": "isHeads",
          "type": "bool"
        },
        {
          "indexed": false,
          "internalType": "uint256",
          "name": "winnings",
          "type": "uint256"
        }
      ],
      "name": "generatedHeadOrTails",
      "type": "event"
    },
    {
      "anonymous": false,
      "inputs": [],
      "name": "weHaveALoser",
      "type": "event"
    },
    {
      "anonymous": false,
      "inputs": [],
      "name": "weHaveAWinner",
      "type": "event"
    },
    {
      "constant": true,
      "inputs": [],
      "name": "balance",
      "outputs": [
        {
          "internalType": "uint256",
          "name": "",
          "type": "uint256"
        }
      ],
      "payable": false,
      "stateMutability": "view",
      "type": "function"
    },
    {
      "constant": true,
      "inputs": [],
      "name": "owner",
      "outputs": [
        {
          "internalType": "address",
          "name": "",
          "type": "address"
        }
      ],
      "payable": false,
      "stateMutability": "view",
      "type": "function"
    },
    {
      "constant": false,
      "inputs": [
        {
          "internalType": "bytes32",
          "name": "_myid",
          "type": "bytes32"
        },
        {
          "internalType": "string",
          "name": "_result",
          "type": "string"
        }
      ],
      "name": "__callback",
      "outputs": [],
      "payable": false,
      "stateMutability": "nonpayable",
      "type": "function"
    },
    {
      "constant": false,
      "inputs": [
        {
          "internalType": "bytes32",
          "name": "_queryId",
          "type": "bytes32"
        },
        {
          "internalType": "string",
          "name": "_result",
          "type": "string"
        },
        {
          "internalType": "bytes",
          "name": "_proof",
          "type": "bytes"
        }
      ],
      "name": "__callback",
      "outputs": [],
      "payable": false,
      "stateMutability": "nonpayable",
      "type": "function"
    },
    {
      "constant": false,
      "inputs": [],
      "name": "coinFlip",
      "outputs": [
        {
          "internalType": "bytes32",
          "name": "queryId",
          "type": "bytes32"
        }
      ],
      "payable": true,
      "stateMutability": "payable",
      "type": "function"
    },
    {
      "constant": false,
      "inputs": [],
      "name": "addToBank",
      "outputs": [],
      "payable": true,
      "stateMutability": "payable",
      "type": "function"
    },
    {
      "constant": true,
      "inputs": [],
      "name": "getBankBalance",
      "outputs": [
        {
          "internalType": "uint256",
          "name": "",
          "type": "uint256"
        }
      ],
      "payable": false,
      "stateMutability": "view",
      "type": "function"
    },
    {
      "constant": false,
      "inputs": [],
      "name": "withdrawAll",
      "outputs": [
        {
          "internalType": "uint256",
          "name": "",
          "type": "uint256"
        }
      ],
      "payable": false,
      "stateMutability": "nonpayable",
      "type": "function"
    }
  ],
  "bytecode": "0x6080604052336000806101000a81548173ffffffffffffffffffffffffffffffffffffffff021916908373ffffffffffffffffffffffffffffffffffffffff160217905550610c7c806100536000396000f3fe60806040526004361061007b5760003560e01c8063853828b61161004e578063853828b6146103045780638da5cb5b1461032f578063b69ef8a814610386578063bd3124e0146103b15761007b565b806327dc297e1461008057806338bbfa50146101525780635ac947cb146102bb5780637b83b50b146102d9575b600080fd5b34801561008c57600080fd5b50610150600480360360408110156100a357600080fd5b8101908080359060200190929190803590602001906401000000008111156100ca57600080fd5b8201836020820111156100dc57600080fd5b803590602001918460018302840111640100000000831117156100fe57600080fd5b91908080601f016020809104026020016040519081016040528093929190818152602001838380828437600081840152601f19601f8201169050808301925050505050505091929192905050506103bb565b005b34801561015e57600080fd5b506102b96004803603606081101561017557600080fd5b81019080803590602001909291908035906020019064010000000081111561019c57600080fd5b8201836020820111156101ae57600080fd5b803590602001918460018302840111640100000000831117156101d057600080fd5b91908080601f016020809104026020016040519081016040528093929190818152602001838380828437600081840152601f19601f8201169050808301925050505050505091929192908035906020019064010000000081111561023357600080fd5b82018360208201111561024557600080fd5b8035906020019184600183028401116401000000008311171561026757600080fd5b91908080601f016020809104026020016040519081016040528093929190818152602001838380828437600081840152601f19601f8201169050808301925050505050505091929192905050506103fe565b005b6102c36106db565b6040518082815260200191505060405180910390f35b3480156102e557600080fd5b506102ee610901565b6040518082815260200191505060405180910390f35b34801561031057600080fd5b5061031961090b565b6040518082815260200191505060405180910390f35b34801561033b57600080fd5b50610344610a2c565b604051808273ffffffffffffffffffffffffffffffffffffffff1673ffffffffffffffffffffffffffffffffffffffff16815260200191505060405180910390f35b34801561039257600080fd5b5061039b610a51565b6040518082815260200191505060405180910390f35b6103b9610a57565b005b6103fa828260006040519080825280601f01601f1916602001820160405280156103f45781602001600182028038833980820191505090505b506103fe565b5050565b6000806002846040516020018082805190602001908083835b6020831061043a5780518252602082019150602081019050602083039250610417565b6001836020036101000a0380198251168184511680821785525050505050509050019150506040516020818303038152906040528051906020012060001c8161047f57fe5b0614905061048b610bf0565b600760008681526020019081526020016000206040518060400160405290816000820160009054906101000a900473ffffffffffffffffffffffffffffffffffffffff1673ffffffffffffffffffffffffffffffffffffffff1673ffffffffffffffffffffffffffffffffffffffff168152602001600182015481525050905081156106425760006002826020015102905080600660008282540392505081905550600060065410156105a6576040517f08c379a00000000000000000000000000000000000000000000000000000000081526004018080602001828103825260158152602001807f4f6f7073212042616c616e6365203c203020212121000000000000000000000081525060200191505060405180910390fd5b816000015173ffffffffffffffffffffffffffffffffffffffff166108fc829081150290604051600060405180830381858888f193505050501580156105f0573d6000803e3d6000fd5b507f8213ae708e8f6c9b1ff228b430fbb6ebd12f7dfc21693ad818afe86868e1a4078684836040518084815260200183151515158152602001828152602001935050505060405180910390a15061068f565b7f8213ae708e8f6c9b1ff228b430fbb6ebd12f7dfc21693ad818afe86868e1a407858360006040518084815260200183151515158152602001828152602001935050505060405180910390a15b60076000868152602001908152602001600020600080820160006101000a81549073ffffffffffffffffffffffffffffffffffffffff0219169055600182016000905550505050505050565b600066038d7ea4c680008034101561075b576040517f08c379a000000000000000000000000000000000000000000000000000000000815260040180806020018281038252601a8152602001807f63616e277420706c616365203c206d696e696d756d206265742100000000000081525060200191505060405180910390fd5b7f815dd9519870d101e38b45559b1649c875a90269952473d54ef2768399962389346040518082815260200191505060405180910390a17f815dd9519870d101e38b45559b1649c875a90269952473d54ef27683999623896006546040518082815260200191505060405180910390a1600654341115610826576040517f08c379a0000000000000000000000000000000000000000000000000000000008152600401808060200182810382526027815260200180610c216027913960400191505060405180910390fd5b3460066000828254019250508190555061083e610bf0565b33816000019073ffffffffffffffffffffffffffffffffffffffff16908173ffffffffffffffffffffffffffffffffffffffff168152505034816020018181525050600061088b82610a69565b90507f5afc5b3d742dc419c3eb952a1b51db61268473d8c077ed55f8e3193addc8e5a13382604051808373ffffffffffffffffffffffffffffffffffffffff1673ffffffffffffffffffffffffffffffffffffffff1681526020018281526020019250505060405180910390a180935050505090565b6000600654905090565b60008060009054906101000a900473ffffffffffffffffffffffffffffffffffffffff1673ffffffffffffffffffffffffffffffffffffffff163373ffffffffffffffffffffffffffffffffffffffff16146109cf576040517f08c379a000000000000000000000000000000000000000000000000000000000815260040180806020018281038252601b8152602001807f596f7520617265206e6f7420636f6e7472616374206f776e657221000000000081525060200191505060405180910390fd5b6000600654905060006006819055503373ffffffffffffffffffffffffffffffffffffffff166108fc829081150290604051600060405180830381858888f19350505050158015610a24573d6000803e3d6000fd5b508091505090565b6000809054906101000a900473ffffffffffffffffffffffffffffffffffffffff1681565b60065481565b34600660008282540192505081905550565b60008060009050600062030d4090506000610a8385610a90565b9050809350505050919050565b6000804260405160200180828152602001915050604051602081830303815290604052805190602001209050826007600083815260200190815260200160002060008201518160000160006101000a81548173ffffffffffffffffffffffffffffffffffffffff021916908373ffffffffffffffffffffffffffffffffffffffff16021790555060208201518160010155905050610be781600060024281610b3457fe5b0614610b75576040518060400160405280600181526020017f3100000000000000000000000000000000000000000000000000000000000000815250610bac565b6040518060400160405280600181526020017f30000000000000000000000000000000000000000000000000000000000000008152505b6040518060400160405280600481526020017f74657374000000000000000000000000000000000000000000000000000000008152506103fe565b80915050919050565b6040518060400160405280600073ffffffffffffffffffffffffffffffffffffffff16815260200160008152509056fe596f752063616e277420626574206d6f7265207468616e207468652062616e6b20686173212121a265627a7a723158205a0f07fe9fd5f85fcb1065ff7b3de2d39efa84392c4119ccde70cf2d508c986464736f6c634300050c0032",
  "source": "import \"./Ownable.sol\";\r\nimport \"./provableAPI.sol\";\r\npragma solidity 0.5.12;\r\n\r\ncontract BillyCoinFlip is Ownable, usingProvable {\r\n\r\n    event weHaveAWinner();\r\n    event weHaveALoser();\r\n    event debug(uint);\r\n\r\n    uint public balance;\r\n    uint256 constant NUM_RANDOM_BYTES_REQUESTED = 1;\r\n\r\n    event HeadOrTailsRequested(address addr, bytes32 queryId);\r\n    event generatedHeadOrTails(bytes32 queryId, bool isHeads, uint winnings);\r\n\r\n    struct Bet {\r\n      address payable addr;\r\n      uint256   betAmount;\r\n    }\r\n\r\n    mapping (bytes32 => Bet) private queryIdToBet;\r\n\r\n    function __callback(bytes32 _queryId, string memory _result, bytes memory _proof) public {\r\n      //require(msg.sender == provable_cbAddress(), \"Not from provable!\");\r\n\r\n      bool isHeads = uint256(keccak256(abi.encodePacked(_result))) % 2 == 0;\r\n      Bet memory bet = queryIdToBet[_queryId];\r\n\r\n      if (isHeads) { //they won! pay out their stake + winnings\r\n          uint toTransfer = bet.betAmount * 2;\r\n          balance -= toTransfer;\r\n          require(balance >= 0, \"Oops! Balance < 0 !!!\"); // INVARIANT OR WE HAVE MUCKED UP\r\n          bet.addr.transfer(toTransfer);\r\n          emit generatedHeadOrTails(_queryId, isHeads, toTransfer);\r\n      } else{\r\n          emit generatedHeadOrTails(_queryId, isHeads, 0);\r\n      }\r\n      delete queryIdToBet[_queryId];\r\n    }\r\n\r\n    function getHeadsOrTails(Bet memory bet) private returns(bytes32) {\r\n      uint256 QUERY_EXECUTION_DELAY = 0;\r\n      uint256 GAS_FOR_CALLBACK = 200000;\r\n\r\n      bytes32  queryId = testRandom(bet);\r\n      /*\r\n      bytes32 queryId = provable_newRandomDSQuery(\r\n        QUERY_EXECUTION_DELAY,\r\n        NUM_RANDOM_BYTES_REQUESTED,\r\n        GAS_FOR_CALLBACK\r\n      );\r\n      queryIdToBet[queryId] = bet;\r\n      */\r\n\r\n      return queryId;\r\n    }\r\n\r\n    function testRandom(Bet memory bet) private returns (bytes32) {\r\n      bytes32 queryId = bytes32(keccak256(abi.encodePacked(now)));\r\n      queryIdToBet[queryId] = bet;\r\n      __callback(queryId, (now%2==0) ? \"0\" : \"1\", bytes(\"test\"));\r\n      return queryId;\r\n    }\r\n\r\n    modifier costs(uint cost){\r\n        require(msg.value >= cost, \"can't place < minimum bet!\");\r\n        _;\r\n    }\r\n\r\n    function coinFlip() public payable costs(0.001 ether) returns(bytes32 queryId) {\r\n        emit debug(msg.value);\r\n        emit debug(balance);\r\n\r\n        require(msg.value <= balance, \"You can't bet more than the bank has!!!\");\r\n\r\n        balance += msg.value;\r\n\r\n        Bet memory bet;\r\n        bet.addr = msg.sender;\r\n        bet.betAmount = msg.value;\r\n\r\n        bytes32 _queryId = getHeadsOrTails(bet);\r\n        emit HeadOrTailsRequested(msg.sender, _queryId);\r\n\r\n        return _queryId;\r\n    }\r\n\r\n    function addToBank() public payable {\r\n        balance += msg.value;\r\n    }\r\n\r\n    function getBankBalance() public view returns(uint){\r\n        return balance;\r\n    }\r\n\r\n   function withdrawAll() public onlyOwner returns(uint) {\r\n       uint toTransfer = balance;\r\n       balance = 0;\r\n       msg.sender.transfer(toTransfer);\r\n       return toTransfer;\r\n   }\r\n\r\n}\r\n",
  "sourcePath": "C:/Users/billy/OneDrive/Documents/crypto/IOT/EthSmartCt201/flip/contracts/BillyCoinFlip.sol",
  "compiler": {
    "name": "solc",
    "version": "0.5.12+commit.7709ece9.Emscripten.clang"
  },
  "schemaVersion": "3.0.16",
  "updatedAt": "2020-11-06T20:48:21.584Z",
  "devdoc": {
    "methods": {
      "__callback(bytes32,string)": {
        "details": "The following `__callback` functions are just placeholders ideally     meant to be defined in child contract when proofs are used.     The function bodies simply silence compiler warnings."
      }
    }
  },
  "userdoc": {
    "methods": {}
  }
}